{
  "contractName": "EtherWallet",
  "abi": [
    {
      "constant": true,
      "inputs": [],
      "name": "owner",
      "outputs": [
        {
          "name": "",
          "type": "address"
        }
      ],
      "payable": false,
      "stateMutability": "view",
      "type": "function"
    },
    {
      "inputs": [
        {
          "name": "_owner",
          "type": "address"
        }
      ],
      "payable": false,
      "stateMutability": "nonpayable",
      "type": "constructor"
    },
    {
      "constant": false,
      "inputs": [],
      "name": "deposit",
      "outputs": [],
      "payable": true,
      "stateMutability": "payable",
      "type": "function"
    },
    {
      "constant": false,
      "inputs": [
        {
          "name": "to",
          "type": "address"
        },
        {
          "name": "amount",
          "type": "uint256"
        }
      ],
      "name": "send",
      "outputs": [],
      "payable": false,
      "stateMutability": "nonpayable",
      "type": "function"
    },
    {
      "constant": true,
      "inputs": [],
      "name": "balanceOf",
      "outputs": [
        {
          "name": "",
          "type": "uint256"
        }
      ],
      "payable": false,
      "stateMutability": "view",
      "type": "function"
    }
  ],
  "bytecode": "0x608060405234801561001057600080fd5b5060405160208061035e8339810180604052602081101561003057600080fd5b8101908080519060200190929190505050806000806101000a81548173ffffffffffffffffffffffffffffffffffffffff021916908373ffffffffffffffffffffffffffffffffffffffff160217905550506102cd806100916000396000f3fe60806040526004361061005c576000357c010000000000000000000000000000000000000000000000000000000090048063722713f7146100615780638da5cb5b1461008c578063d0679d34146100e3578063d0e30db01461013e575b600080fd5b34801561006d57600080fd5b50610076610148565b6040518082815260200191505060405180910390f35b34801561009857600080fd5b506100a1610167565b604051808273ffffffffffffffffffffffffffffffffffffffff1673ffffffffffffffffffffffffffffffffffffffff16815260200191505060405180910390f35b3480156100ef57600080fd5b5061013c6004803603604081101561010657600080fd5b81019080803573ffffffffffffffffffffffffffffffffffffffff1690602001909291908035906020019092919050505061018c565b005b61014661029f565b005b60003073ffffffffffffffffffffffffffffffffffffffff1631905090565b6000809054906101000a900473ffffffffffffffffffffffffffffffffffffffff1681565b6000809054906101000a900473ffffffffffffffffffffffffffffffffffffffff1673ffffffffffffffffffffffffffffffffffffffff163373ffffffffffffffffffffffffffffffffffffffff16141561022d578173ffffffffffffffffffffffffffffffffffffffff166108fc829081150290604051600060405180830381858888f19350505050158015610227573d6000803e3d6000fd5b5061029b565b6040517f08c379a00000000000000000000000000000000000000000000000000000000081526004018080602001828103825260158152602001807f73656e646572206973206e6f7420616c6c6f776564000000000000000000000081525060200191505060405180910390fd5b5050565b56fea165627a7a72305820a227885c35819ff6deaf44bb4525990fea076407c3f8881b025db1fbf5aff4220029",
  "source": "pragma solidity ^0.5.0;\r\n\r\ncontract EtherWallet {\r\n  address payable public owner;\r\n\r\n  constructor(address payable _owner) public {\r\n    owner = _owner;\r\n  }\r\n\r\n  function deposit() payable public {\r\n  }\r\n\r\n  function send(address payable to, uint amount) public {\r\n    if(msg.sender == owner) {\r\n      to.transfer(amount);\r\n      return;\r\n    } \r\n    revert('sender is not allowed');\r\n  }\r\n\r\n  function balanceOf() view public returns(uint) {\r\n    return address(this).balance;\r\n  }\r\n}\r\n",
  "sourcePath": "C:/Users/nwagb/Documents/etherwallett/EtherWallet/frontend/contracts/EtherWallet.sol",
  "compiler": {
    "name": "solc",
    "version": "0.5.2+commit.1df8f40c.Emscripten.clang"
  },
  "schemaVersion": "3.0.19",
  "updatedAt": "2020-05-17T21:14:39.454Z",
  "networkType": "ethereum",
  "devdoc": {
    "methods": {}
  },
  "userdoc": {
    "methods": {}
  }
}